:100000000C941C010C9444010C9444010C94440184
:100010000C9444010C9444010C9444010C9444014C
:100020000C9444010C9444010C94C0060C948C056F
:100030000C9444010C9444010C9444010C9444012C
:100040000C9444010C9444010C9444010C9444011C
:100050000C9444010C9444010C9444010C945A01F6
:100060000C9444010C9444010C9444010C944401FC
:100070000C9444010C9444010C9444010C944401EC
:100080000C9444010C9444010C9444010C944401DC
:100090000C9444010C9444010C9444010C944401CC
:1000A0000C9444010C9444010C944401080B00028C
:1000B0000202010009040000010202000005240000
:1000C0001001052401010104240206052406000193
:1000D0000705810310004009040100020A00000026
:1000E000070502024000000705830240000000C12E
:1000F0008081C112010002020000404123378000CC
:1001000001010200011201000200000040412337FA
:100110008000010102000141726475696E6F204C1C
:100120004C430041726475696E6F204D6963726F54
:10013000000403090400000000000000002A2B282E
:1001400000000000000000000000000000000000AF
:1001500000000000002C9EB4A0A1A2A434A6A7A574
:10016000AE362D3738271E1F20212223242526B303
:1001700033B62EB7B89F8485868788898A8B8C8D05
:100180008E8F909192939495969798999A9B9C9D17
:100190002F3130A3AD350405060708090A0B0C0DF5
:1001A0000E0F101112131415161718191A1B1C1DF7
:1001B000AFB1B0B50009040200010300000009213D
:1001C00001010001226500070584034000010501CB
:1001D0000902A1010901A1008501050919012903ED
:1001E00015002501950375018102950175058103AF
:1001F00005010930093109381581257F75089503F6
:100200008106C0C005010906A1018502050719E0A4
:1002100029E71500250175019508810295017508EA
:1002200081039506750815002565050719002965E0
:100230008100C0000803810811241FBECFEFDAE05F
:10024000DEBFCDBF11E0A0E0B1E0ECE2F1E102C021
:1002500005900D92A633B107D9F721E0A6E3B1E0EE
:1002600001C01D92A53AB207E1F712E0C8E3D2E05F
:1002700004C02297FE010E949008C433D107C9F739
:100280000E9437070C9494080C94000040E855E253
:1002900060E070E08FE391E00C9402036AE071E0AB
:1002A0008FE391E00E947E0368EE73E080E090E0CF
:1002B0000C94C7011F920F920FB60F9211242F9327
:1002C0003F938F939F93AF93BF938091370190910A
:1002D0003801A0913901B0913A013091360123E003
:1002E000230F2D3720F40196A11DB11D05C026E86E
:1002F000230F0296A11DB11D209336018093370173
:1003000090933801A0933901B0933A0180913B0159
:1003100090913C01A0913D01B0913E010196A11D3B
:10032000B11D80933B0190933C01A0933D01B0939C
:100330003E01BF91AF919F918F913F912F910F906F
:100340000FBE0F901F9018953FB7F89480913B0116
:1003500090913C01A0913D01B0913E0126B5A89B32
:1003600005C02F3F19F00196A11DB11D3FBF6627A3
:10037000782F892F9A2F620F711D811D911D42E0E8
:10038000660F771F881F991F4A95D1F70895CF925E
:10039000DF92EF92FF92CF93DF936B017C010E947B
:1003A000A401EB01C114D104E104F10489F00E941D
:1003B0004A070E94A4016C1B7D0B683E734090F3BA
:1003C00081E0C81AD108E108F108C851DC4FEACF32
:1003D000DF91CF91FF90EF90DF90CF9008957894C8
:1003E00084B5826084BD84B5816084BD85B582603A
:1003F00085BD85B5816085BDEEE6F0E080818160D8
:100400008083E1E8F0E010828081826080838081D7
:1004100081608083E0E8F0E0808181608083E1E9B1
:10042000F0E0808182608083808181608083E0E968
:10043000F0E0808181608083E1ECF0E08081846085
:100440008083808182608083808181608083E3EC0F
:10045000F0E0808181608083E0ECF0E08081826068
:100460008083E2ECF0E0808181608083EAE7F0E065
:1004700080818460808380818260808380818160CC
:1004800080838081806880830895CF93DF931F925B
:10049000CDB7DEB76983DC01ED91FC910280F38179
:1004A000E02D41E050E0BE016F5F7F4F09950F9056
:1004B000DF91CF910895CF93DF93EC018C859D85DB
:1004C00097FF05C082E00E9461049D878C878C8520
:1004D0009D85DF91CF91089583E00C94B606FC01D1
:1004E0008485958597FD06C082E00E94090490E00E
:1004F0000196089582E00E94090490E00895FC01AD
:100500008485958597FD05C02FEF3FEF35872487BC
:10051000089582E00C946104CF93DF93EC01809105
:100520000701882331F083E00E949204181619060F
:1005300034F081E090E09B838A8380E090E0DF915B
:10054000CF910895FC0120812E5F208342E450E08A
:100550006CEA70E080E80C942D05FC0181819081AB
:10056000913A59F4813209F03CC047E050E060E034
:1005700071E080E00E942D0543C0913291F58032F8
:1005800039F467E070E080E091E00E945E0506C00B
:10059000823209F035C08281809307018091000189
:1005A00090910101A0910201B0910301803B944020
:1005B000A105B105C1F48091070180FD14C087E752
:1005C00097E790930108809300082BE088E190E082
:1005D0000FB6F894A895809360000FBE209360003A
:1005E0000FC080E0089588E10FB6F8948093600012
:1005F000109260000FBEA89510920108109200089A
:1006000081E008952FEF3FEFFC013587248708959F
:10061000109242011092410188EE93E0A0E0B0E018
:100620008093430190934401A0934501B093460108
:100630008BE191E09093400180933F018FEF9FEF1A
:1006400090934C0180934B010895CF92DF92EF92EB
:10065000FF920F931F93CF93DF936C017A01EB010D
:10066000E60EF71E00E010E0CE15DF0561F069919F
:10067000D601ED91FC910190F081E02DC601099524
:10068000080F191FF1CFC801DF91CF911F910F9172
:10069000FF90EF90DF90CF9008956115710581F084
:1006A000DB010D900020E9F7AD0141505109461BD7
:1006B000570BDC01ED91FC910280F381E02D099450
:1006C00080E090E00895DC01ED91FC910190F081D3
:1006D000E02D09940F931F93CF93DF93EC016DE00E
:1006E0000E9463038C016AE0CE010E946303800FC5
:1006F000911FDF91CF911F910F9108950F931F9339
:10070000CF93DF93EC010E944D038C01CE010E9438
:100710006A03800F911FDF91CF911F910F91089570
:100720004091930150919401209191013091920157
:1007300042175307B4F49091E8009570E1F390915B
:10074000E80092FD19C08093F1008091930190918F
:10075000940101968F739927892B19F48EEF80935A
:10076000E8008091930190919401019690939401F7
:100770008093930181E0089580E00895CF92DF9205
:10078000FF920F931F93CF93DF931F92CDB7DEB7E6
:10079000082F162F862F880F8E5F99830E94900353
:1007A00083E00E949003F02EC02E9981D92E8C2DCB
:1007B0008F19811778F4F60184910E949003082F15
:1007C00080E00E9490038023FFEFCF1ADF0A81119F
:1007D000EECF01C081E00F90DF91CF911F910F917B
:1007E000FF90DF90CF900895615030F02091F1009C
:1007F000FC0120830196F8CF289A84E68093960125
:1008000008952FB7FC012083F89467706093E90086
:100810000895CF93DF931F92CDB7DEB7682FCE0137
:1008200001960E9401048091F20099819FBF0F9070
:10083000DF91CF910895FF920F931F93CF93DF9392
:1008400000D0CDB7DEB7F62E8A019091950199239D
:1008500011F057FF03C08FEF9FEF2BC0682FCE0121
:1008600001967A830E9401048091F20090E0A80131
:100870007A81801791070CF4AC01EF2DF72FF40E5D
:1008800084E6FE1639F0289A809396019091F10043
:100890009193F7CF4115510521F08091F200882303
:1008A00021F089818FBFCA0104C08BE68093E800E4
:1008B000F8CF0F900F90DF91CF911F910F91FF9084
:1008C0000895CF93DF931F92CDB7DEB741E050E09C
:1008D000BE016F5F7F4F0E941B04019719F489814D
:1008E00090E002C08FEF9FEF0F90DF91CF910895BE
:1008F000CF93DF931F92CDB7DEB7682FCE0101965D
:100900000E9401049091E800892F807295FF04C035
:100910009091F20080E4891B99819FBF0F90DF9135
:10092000CF9108956F927F928F929F92AF92BF92D4
:10093000CF92DF92EF92FF920F931F93CF93DF93AB
:100940001F92CDB7DEB7782E7B01C42EB52E8091D5
:100950009501882369F0042F152F8AEFD82E872D53
:100960008072982E9AE3A92E872D8074882E11C04C
:100970008FEF9FEF57C0872D0E947804682E81115A
:100980000CC0DA94A9F361E070E080E090E00E948E
:10099000C7010115110579F73BC0282F30E0021778
:1009A00013070CF4602E672DCE0101960E940104FE
:1009B0008091E80085FF29C0262D30E0021B130B33
:1009C000992039F06A948FEF6816B1F01092F10017
:1009D000F9CFF701862D77FE07C0815058F094912A
:1009E0009093F1003196F9CF815020F0919190933E
:1009F000F100FACFE20EF31E8091E80085FF0FC0F0
:100A00000115110511F481100AC089818FBFC1CF72
:100A10005D9A84E6809397018C2D9B2D03C0A09254
:100A2000E800F3CF0F90DF91CF911F910F91FF90CE
:100A3000EF90DF90CF90BF90AF909F908F907F907E
:100A40006F9008951092E900109294011092930112
:100A500090939201809391010895CF92DF92FF923B
:100A60000F931F93CF93DF9300D0CDB7DEB7F82E4F
:100A70008A016B0101151105B1F0F601F7FE02C004
:100A8000849101C0808149835A830E949003015060
:100A90001109FFEFCF1ADF0A49815A818111EACF8C
:100AA0008FEF9FEF01C0CA010F900F90DF91CF91A0
:100AB0001F910F91FF90DF90CF9008951F93CF93D8
:100AC000DF931F92CDB7DEB7162F2091E80022FFEB
:100AD000FCCF612F79830E94F4038BEF8093E800B1
:100AE000812F7981972F0F90DF91CF911F910895DA
:100AF000CF93DF931F92CDB7DEB71982CE01019657
:100B00000E94A202CE0101960E946907898190E0AD
:100B10000F90DF91CF9108951F920F920FB60F9211
:100B20001124EF92FF920F931F932F933F934F93B4
:100B30005F936F937F938F939F93AF93BF93EF9345
:100B4000FF93CF93DF93CDB7DEB76297DEBFCDBF04
:100B50001092E9008091E80083FFEBC068E0CE01CD
:100B60000A960E94F40382EF8093E8009A8597FF2B
:100B700005C08091E80080FFFCCF03C08EEF80931A
:100B8000E800892F807609F0B9C08B85811105C0F6
:100B90001092F1001092F100C5C0282F2D7F213056
:100BA00009F4C0C0853049F48091E80080FFFCCF93
:100BB0008C8580688093E300B5C0863009F076C0EC
:100BC0002D85E888F988223071F580E090E02A8B45
:100BD0000E9422050E94780599E08E010F5F1F4F49
:100BE000F801392F11923A95E9F799832A892A83D6
:100BF00091E09E8390E898879AEF998720919301DE
:100C000030919401275F3F4F3C832B838D83C70135
:100C10000E94220549E050E0B80180E00E942D05C5
:100C20000E9478057FC0C7012A8B0E9422052A896D
:100C3000223241F482E290E00E947407892B09F08D
:100C400071C074C0213069F488899989089711F4BA
:100C50002093900180919001811118C065E071E0AE
:100C60001AC0233009F062C08C85882391F082304D
:100C700021F46DE083E291E006C0813009F056C0B6
:100C80006BE087E191E00E94BE034AC063EF70E031
:100C900002C061E371E06115710509F447C0FB0111
:100CA000449150E080E80E942D053CC0873009F453
:100CB0003DC0883021F481E08093F10033C0893059
:100CC00089F5937099F5EFEEF0E081E021E096E38D
:100CD0008093E9002093EB0034913093EC009093E3
:100CE000ED008F5F3196853099F78EE78093EA00AB
:100CF0001092EA008C858093950114C088899989A7
:100D00000E9422058E85811105C0CE010A960E949F
:100D1000AD0206C0823051F4CE010A960E949C07B3
:100D2000882321F08EEF8093E80003C081E2809356
:100D3000EB0062960FB6F894DEBF0FBECDBFDF9119
:100D4000CF91FF91EF91BF91AF919F918F917F9143
:100D50006F915F914F913F912F911F910F91FF9054
:100D6000EF900F900FBE0F901F9018958093E900A1
:100D70008091F200882319F08AE38093E8000895B7
:100D80001F920F920FB60F9211242F933F934F9300
:100D90005F936F937F938F939F93AF93BF93EF93E3
:100DA000FF938091E1001092E10083FF0FC0109249
:100DB000E90091E09093EB001092EC0092E39093A5
:100DC000ED001092950198E09093F00082FF1DC015
:100DD00083E00E94B60680919701882339F08091C4
:100DE0009701815080939701882369F08091960143
:100DF000882359F08091960181508093960181114A
:100E000004C0289802C05D98F1CFFF91EF91BF9187
:100E1000AF919F918F917F916F915F914F913F9192
:100E20002F910F900FBE0F901F9018951092950163
:100E300081E08093D70080EA8093D80082E189BD69
:100E400009B400FEFDCF61E070E080E090E00E9418
:100E5000C70180E98093D8008CE08093E200109273
:100E6000E000559A209A5D982898089508950E9468
:100E7000EF010E9436078FE891E00E9416070E945A
:100E80004601C0E0D0E00E944E012097E1F30E94AD
:100E90000000F9CF0895FF920F931F93CF93DF9334
:100EA000EC01F62EE881F9810480F581E02D0995A9
:100EB0008C01E881F9810680F781E02D6F2DCE014C
:100EC0000995C8019927DF91CF911F910F91FF904C
:100ED0000895FC0120812F5F208349E150E065EBFC
:100EE00071E080E80C942D0545E650E06EEC71E071
:100EF00080E80C942D05EF92FF920F931F93CF93F0
:100F0000DF931F92CDB7DEB789838B017A0141E071
:100F100050E0BE016F5F7F4F84E00E949204A70102
:100F2000B80184E40E9492040F90DF91CF911F9149
:100F30000F91FF90EF900895FC0191818081813A9B
:100F400031F481E0913091F0933089F411C0813215
:100F500071F49B3021F482818093090105C09A309D
:100F600031F482818093080181E00895089580E042
:100F7000089548E050E082E00C947B07CF93DF9324
:100F8000DC01683818F0E8E7E60F25C0E62FF0E04E
:100F900067FF11C0E058F10981E090E001C0880FBF
:100FA000EA95EAF714969C911497982B14969C93C3
:100FB0001497E0E010C0EB5CFE4FE491EE2309F4DF
:100FC00040C0E7FF08C014968C9114978260149675
:100FD0008C931497EF7716968C9116978E1741F194
:100FE00017968C9117978E1719F118968C91189760
:100FF0008E17F1F019968C9119978E17C9F01A96E1
:101000008C911A978E17A1F01B968C911B978E17B7
:1010100079F080E090E0ED01C80FD91F2E812111F9
:1010200002C0EE8305C0019686309105A1F709C084
:10103000BD016C5F7F4FCD010E94B90781E090E058
:1010400008C081E090E013969C938E93129780E005
:1010500090E0DF91CF910895683818F0E8E7E60F47
:1010600025C0E62FF0E067FF12C0E058F10921E04B
:1010700030E001C0220FEA95EAF72095DC011496D2
:101080003C911497322314963C93E0E00FC0EB5C44
:10109000FE4FE491EE2329F1E7FF08C0DC0114962E
:1010A0002C9114972D7F14962C93EF7720E030E04D
:1010B000EE2351F0DC01A20FB31F16964C91169748
:1010C0004E1302C016961C922F5F3F4F26303105FB
:1010D00079F7BC016C5F7F4F0E94B90781E090E017
:1010E000089580E090E00895FC0116821782108632
:1010F0001186128613861482BC016C5F7F4F0C949C
:10110000B9071092A40110929B0110929A018BE2F0
:1011100091E090939901809398010895EE0FFF1F3D
:0C1120000590F491E02D0994F894FFCFA5
:10112C0000E1000000000000010148656C6C6F20BC
:10113C00576F726C6421000000000045028C026F36
:10114C00027F025B026C02000000004B072503BE0D
:06115C00072C08740800D6
:00000001FF
